:020000021000EC
:1080000000400020A98001007DBD010073DB01005C
:108010000000000000000000000000000000000060
:108020000000000000000000000000007DBD010015
:1080300000000000000000007DBD01007DBD0100CA
:108040007DBD01007DBD0100BDB1010061B6010033
:108050007DBD0100000000007DBD0100E9AF010011
:108060007DBD010049B00100BDB001007DBD010032
:108070007DBD01007DBD01007DBD01007DBD010014
:108080007DBD010035B401007DBD01007DBD010055
:108090007DBD01007DBD01007DBD01007DBD0100F4
:0880A0007DBD01007DBD010062
:1080A80003F06BFE084809490022814201D004C050
:1080B800FBE707480749084A814202D008CA08C0B6
:1080C800FAE700F0BDF800DE202200201C2700207F
:1080D80000200020202200200CE3010080B500AF22
:1080E80088B0019000200390029002A803F01CF8C9
:1080F80003F014F9002813D00D48079001A8069042
:1081080002AC0C4906AA204603F0BCFE0398049969
:1081180003F09EF8204603F02AFE204603F020FED6
:10812800054C002003F076FB204603F02DFEF8E70F
:10813800D1810100FEDB010040420F0080B500AF95
:1081480002460846114600F001F8D4D4F8B504AF49
:1081580001910090022003F015FB03F0CDF80448CC
:10816800039068460290034802A9034A04F0BAFC47
:10817800DD810100E1DD010094DE010080B500AF82
:1081880000F0D8FA1920400102F0F8FF0124204637
:1081980003F0F8FA03F022F9204603F007FB002564
:1081A800054C002D02D1002003F034FB681C214649
:1081B80005F0D4FC0D46F4E71027000080B500AFA9
:1081C800006805F093F980BD80B500AF006805F040
:1081D800C5F980BDD0B502AF88B00C4607900B49F1
:1081E800069107A9059105210491094903910949B7
:1081F8000291001D01900420009007490622074BB8
:10820800204604F041F908B0D0BDC046B4DE0100F4
:10821800D2DE0100A4DE0100C4DE0100CEDE0100D2
:1082280080B500AF8A68930104D4520105D405F0E3
:10823800CDF880BD05F06AF880BD05F097F880BDDF
:1082480080B500AFFFF79AFF80B500AF80BD3CDF77
:108258007047C046180048DF7047C046180076DFF0
:108268007047C04618007ADF7047C04618007CDFA8
:108278007047C04618007FDF7047C0461800A9DF66
:108288007047C046180060DF7047C0461800D4D455
:1082980080B582B000AF02003960BB1D1A80BB1DDB
:1082A8001B883A680348190000F086FAC046BD46A4
:1082B80002B080BDEFBEADDE80B586B000AF3B003A
:1082C8001A780F218A43111C01220A431A703B00B5
:1082D8001A780F210A40111C10220A431A70204BE9
:1082E800180005F099F903009AB21D493B001800DF
:1082F800FFF7BDFF03007B617B693B613B69002B96
:1083080005D03B6900220021180000F055FA3B1DFA
:1083180008220021180005F0A9FB3B1D10221A8035
:108328003B1D3C225A803B1D00229A803B1DC822DF
:108338005200DA803B1D1800FFF795FF03007B61B0
:108348007B69FB60FB68002B05D0FB6800220021DD
:10835800180000F031FAC046BD4606B080BDC046E0
:10836800D8DE010080B584B000AFF860B960BB1DED
:108378001A80C046BD4604B080BDD4D480B584B050
:1083880000AF3B1D04220021180005F06FFB0C4BC9
:108398007B603A1D0B4B1100180002F039FD0300F9
:1083A800FB60FB68BB60BB68002B05D0BB68002284
:1083B8000021180000F000FAC046BD4604B080BD98
:1083C8006D8301002022002080B584B000AF786062
:1083D8007B681B78002B12D10B4B1B883B211800A4
:1083E800FFF73DFF0300FB60FB68BB60BB68002B29
:1083F80005D0BB6800220021180000F0DDF9C04656
:10840800BD4604B080BDC0460020002080B582B0C3
:1084180000AF78607B6800220021180000F0CCF9DA
:10842800C046BD4602B080BD80B58AB000AF3B1DD6
:108438001C220021180005F019FB3B1D00221A60C0
:108448003B1DA02292025A603B1DF02212039A6043
:108458003B1D03221A733B1D0022DA813B1D0022BB
:108468001A743B1D0C4A5A613B1D0C4A9A613B1D0C
:10847800180002F051F903007B627B6A3B623B6A99
:10848800002B05D03B6A00220021180000F094F967
:10849800C046BD460AB080BDD183010015840100E5
:1084A80080B582B000AFFFF7D2FE03007B607B6827
:1084B8003B603B68002B05D03B6800220021180078
:1084C80000F07AF9C046BD4602B080BD80B582B0E2
:1084D80000AF0200FB1D1A70FB1D1B78002B02D198
:1084E800FFF7DEFF00E0C046C046BD4602B080BDD3
:1084F80080B586B000AF78607B681B88522B27D088
:108508003BDC132B0FD038DC102B02D0112B05D0FD
:1085180033E07B689A881D4B1A8033E01B4B01229D
:1085280052421A802EE0194B188800230022852118
:10853800FFF7A1FE03007B617B69FB60FB68002BF2
:108548001DD0FB6800220021180000F035F916E064
:108558000E4B1888002300220021FFF790FE03002D
:108568007B617B693B613B69002B0AD03B69002238
:108578000021180000F020F903E0C04602E0C046E0
:1085880000E0C046C046BD4606B080BD00200020C1
:1085980080B582B000AF78607B68180002F006FAF8
:1085A8007A68084B1100180002F002FC7B6818007A
:1085B800FFF79EFF7B68180000F098FFC046BD4695
:1085C80002B080BD2022002080B588B000AF2249CB
:1085D80000234822092002F0A9FC0300FB61FB6983
:1085E800BB61BB69002B05D0BB69002200211800C4
:1085F80000F0E2F83B1D08220021180005F036FAC9
:108608003B1D1A7801218A431A703B1D1800FFF799
:108618003AFE03007B617B693B613B69002B05D017
:108628003B6900220021180000F0C6F80B4B180027
:1086380002F0C2FC03007B617B69FB60FB68002BD6
:1086480005D0FB6800220021180000F0B5F8C046EC
:10865800BD4608B080BDC0463C2200209985010077
:10866800B0B5AAB002AF60243B1938220021180027
:1086780005F0FCF93B1902221A703B1900229A7086
:108688003B190522DA7028257B19382200211800A9
:1086980005F0ECF97B1901221A827B19184A5A61F4
:1086A8003B1D180024231A00002105F0DFF93B1DAB
:1086B80001221A733B1D40221A613B1DB4225A61E4
:1086C800104B3A1D791938190024009400F05CFC0D
:1086D80003009C22B9180B60BB181B689822B918B4
:1086E8000B60BB181B68002B06D0BB181B68002248
:1086F8000021180000F060F8C046BD4628B0B0BDA3
:1087080004200020D584010080B582B000AFFFF7B7
:10871800A2FD03007B607B683B603B68002B05D0B3
:108728003B6800220021180000F046F8C046BD460C
:1087380002B080BD80B586B000AF3B00144A03CAC2
:1087480003C312881A80134A00230521002000F071
:10875800A5FA03007B617B693B613B69002B05D06F
:108768003B6900220021180000F026F8FFF72CFFD3
:10877800FFF7A2FDFFF702FEFFF772FFFFF754FEB7
:10878800032000F0FFFC0300FB60FFF7BDFFFCE7E0
:10879800E4DE01008422002080B500AFBFF34F8FD4
:1087A800C046034B034ADA60BFF34F8FC046FEE76B
:1087B80000ED00E00400FA0580B584B000AFF86071
:1087C800B9607A60FFF7E8FFC046BD4604B080BDD7
:1087D80080B582B000AF78607B68032213405A42AC
:1087E8005341DBB21800BD4602B080BD80B582B0EF
:1087F80000AF0200FB1D1A70FB1D1B781A001F2317
:10880800134001229A40034B1A60C046BD4602B08D
:1088180080BDC04600E100E080B582B000AF020034
:10882800FB1D1A70FB1D1B781A001F231340012221
:108838009A401300034A19008023D150C046BD4610
:1088480002B080BD00E100E080B582B000AF020058
:10885800FB1D1A70FB1D1B781A001F2313400122F1
:108868009A401300044A190080235B00D150C04687
:10887800BD4602B080BDC04600E100E080B582B0D0
:1088880000AF0200FB1D1A70FB1D1B781A001F2386
:10889800134001229A401300044A1900C0235B00C8
:1088A800D150C046BD4602B080BDC04600E100E0E0
:1088B80090B583B000AF02003960FB1D1A70FB1D34
:1088C8001B787F2B32D92F4AFB1D1B7819000F23E9
:1088D8000B40083B9B0806339B00D31804331B68E6
:1088E800FA1D1278110003220A40D200FF2191409C
:1088F8000A00D2431A4011003B689B01FF221A402C
:10890800FB1D1B78180003230340DB009A401D4819
:10891800FB1D1B781C000F232340083B9B080A43C0
:1089280006339B00C31804331A6027E0164AFB1D60
:108938001B785BB29B08C0339B009B58FA1D1278CA
:10894800110003220A40D200FF2191400A00D243BD
:108958001A4011003B689B01FF221A40FB1D1B783F
:10896800180003230340DB009A400748FB1D1B78CF
:108978005BB29B080A43C0339B001A50C046BD46F1
:1089880003B090BD00ED00E000E100E080B582B0EA
:1089980000AF0200FB1D1A70FB1D1B787F2B18D936
:1089A800174AFB1D1B7819000F230B40083B9B0837
:1089B80006339B00D31804331A68FB1D1B78190073
:1089C80003230B40DB00DA4013009B09032213400A
:1089D80012E00C4AFB1D1B785BB29B08C0339B005E
:1089E8009A58FB1D1B78190003230B40DB00DA4063
:1089F80013009B09032213401800BD4602B080BD36
:108A080000ED00E000E100E080B582B000AF0C4B63
:108A18005B68DB05DB0D7B607B68002B0AD07B681D
:108A2800103B3B603B685BB21800FFF7AFFF0300E9
:108A3800DBB200E004231800BD4602B080BDC0468A
:108A480000ED00E080B582B000AF78600649A12350
:108A5800DB007A68CA5003211120FFF729FFC046BE
:108A6800BD4602B080BDC0460010014080B582B04E
:108A780000AF1120FFF7D0FE2049D2239B008022AF
:108A88005202CA501D49C2239B0080225202CA507A
:108A98001A4B01225A602F237B607B68180001382B
:108AA800C046C046C046C046C046C046C046C0468E
:108AB800C046C046C046C046F1D1C0460F4B012251
:108AC8009A600F4B00221A602F233B603B68180006
:108AD8000138C046C046C046C046C046C046C0462B
:108AE800C046C046C046C046C046F1D1C046054B48
:108AF80000221A70C046BD4602B080BD0010014079
:108B0800582400206424002080B500AF024A034B9B
:108B1800D3581800BD4680BD001001400405000070
:108B280080B500AF1420FFF78FFEC046BD4680BD5C
:108B380080B582B000AF78600A00FB1C1A707B68B1
:108B4800FA1C12785A70C046BD4602B080BD80B586
:108B580084B000AF786039607B685A780F217B1841
:108B680001321A707B689B787A1812789A4202D17F
:108B78007B1800221A707B681B780F22BA181278AB
:108B88009A4201D1002310E03B680F22BA181278EC
:108B98001A707B685A687B685B7819000B005B0069
:108BA8005B18DB00D318BB60BB681800BD4604B077
:108BB80080BDD4D480B586B000AFF860B9607A6063
:108BC8003B601C4B1A68FB68DB00D3181322BA18E9
:108BD80011001800FFF7BBFF03007B617B69002BC6
:108BE80001D1042322E07B6901221A707B69BA68EB
:108BF8005A60FFF789FF02007B699A607B697A688F
:108C0800DA607B693A681A617B693A6A5A61094B8A
:108C18001A68FB68DB00D2181323FB181B781900AD
:108C28001000FFF785FFFFF77BFF00231800BD4604
:108C380006B080BD5024002080B584B000AF7860B5
:108C48003960154B1A687B68DB00D3180B22BA18F9
:108C580011001800FFF77BFF0300FB60FB68002B87
:108C680001D1042314E0FB6802221A70FB683A68F9
:108C78005A60094B1A687B68DB00D2180B23FB1873
:108C88001B7819001000FFF753FFFFF749FF002377
:108C98001800BD4604B080BD5024002080B586B0C1
:108CA80000AFF8607A603B600B23FB180A1C1A704F
:108CB8007B681800FFF78CFD03001A00012353405E
:108CC800DBB2002B01D0072359E07B68002B04D1CD
:108CD8002D4B00221A60072351E0FFF7C7FE2B4BEC
:108CE8003A681A602A4B03221A70274B7A681A606E
:108CF8007B6818337B6000237B6120E0224B1A6875
:108D08007B69DB00D3183B613B6900221A703B6921
:108D180000225A703B690B217A1812789A703B69C5
:108D28007A685A607B181A7813005B009B18DB007E
:108D38001A007B689B187B607B6901337B617B69C8
:108D4800022BDBDD134B00221A60134B00221A7032
:108D5800124B00221A701420FFF790FD03211420F3
:108D6800FFF7A6FD1420FFF741FDFB681800FFF789
:108D780069FEFFF7C9FE0200094B1A6000231800BC
:108D8800BD4606B080BDC0465024002060240020A7
:108D98004C240020542400205C2400205D24002062
:108DA8005824002080B586B000AFF8607A600B23A5
:108DB800FB180A1C1A70154B1B68002B01D10823DD
:108DC8001FE07B68002B01D107231AE0FB68002B0A
:108DD80001D1072315E0FB681B681B7C002B01D021
:108DE80008230EE0FB681B687B617B6900221A740C
:108DF8007B690B22BA1812785A747B697A685A61AF
:108E080000231800BD4606B080BDC046502400208F
:108E180080B582B000AFFFF7F7FD0300012B02D049
:108E2800032B03D005E000237B6005E001237B6072
:108E380002E002237B60C0467B681800BD4602B092
:108E480080BDD4D490B589B002AFF860B9607A60BB
:108E5800FB687B61174B1B68002B01D1082324E0BA
:108E6800FB68002B01D108231FE0BB68042B01D845
:108E780007231AE07B695B69002B01D1082314E002
:108E88007B695B7C012B01D1BB6800E000233B615F
:108E9800FFF7BEFF04003869BA6879697B680093F8
:108EA80003002000FFF786FE03001800BD4607B048
:108EB80090BDC0465024002080B584B000AF7860D3
:108EC8007B68FB600F4B1B68002B01D1082314E063
:108ED8007B68002B03D0FB685B69002B01D108235A
:108EE8000BE0FB6800221A74FFF792FF0200FB6890
:108EF80019001000FFF7A0FE03001800BD4604B0DB
:108F080080BDC0465024002073DF7047C04618005B
:108F180080B582B000AF78607B681B79002B03D1E5
:108F28007B681B7B002B01D0012300E00023180085
:108F3800BD4602B080BDD4D480B500AF044B072233
:108F48000021180004F092FDC046BD4680BDC04611
:108F58006824002080B584B000AF78600023FB60EF
:108F68000AE07A68FB68D3181B78002B01D001232C
:108F780006E0FB680133FB60FB68052BF1D9002391
:108F88001800BD4604B080BD90B589B000AFF86048
:108F9800B9607A603B60FB68002B02D07B68002BCD
:108FA80001D10E23CDE0694B00221A70684B3A6854
:108FB8001A60684B3A6B1A60674B7A6813CA13C316
:108FC80013CA13C313CA13C3FFF7B6FF634B644A2C
:108FD8001A60624B634A9A60634B3822002118007A
:108FE80004F044FDFB681A785F4B1A70FB689A78A6
:108FF8005D4B9A70FB68DA785B4BDA70FB685A78DD
:10900800594B5A70584BFA681033103203CA03C3CD
:10901800554BFA680833083203CA03C3524BFA683F
:109028001833183203CA03C3FB685B6A002B29D0C4
:109038004D4B4E4A5A624D4B4D4A9A60FB685A6AEC
:10904800494B5B6A12881A80FB685A6A464B5B6A0E
:1090580092889A800023FB610DE0FB685B6A9A683E
:10906800FB69D3181978424AFB69D3180A1C1A708D
:10907800FB690133FB613C4B5B6A9B881A00FB6907
:109088009342EAD3FB689B6A002B33D0394B3A4AA8
:109098009A60354B374A9A62334B9B6A364A9A60D4
:1090A800FB689A6A304B9B6A92889A80FB689A6A36
:1090B8002D4B9B6A12881A800023BB610DE0FB6868
:1090C8009B6A9A68BB69D31819782B4ABB69D3186D
:1090D8000A1C1A70BB690133BB61234B9B6A9B88CE
:1090E8001A00BB699342EAD3FB682C22995C1E4B99
:1090F8002C229954FB681B6A002B0ED01A4B1F4A6E
:109108001A62FB681A6A184B1B6A52885A80FB68F5
:109118001A6A154B1B6A12881A80FB685B68002B59
:1091280006D0114B164A5A60FB685A680E4B5A60B3
:10913800BA680D4B1100180001F0ACF903007B610F
:109148007B691800BD4609B090BDC046B424002014
:10915800AC240020B0240020B8240020DC24002007
:10916800EC2400200C25002070240020302500204D
:109178003C2500205C25002068250020882500204B
:109188008C25002090B58BB000AF0200FB1D1A7033
:10919800C04BFA1D12781A700023BB600823FB1815
:1091A800180001F0E3F903007B627B6A082B02D107
:1091B8000023BB6004E07B6A002B01D07B6A8CE152
:1091C800BB68002B04D0B44B01221A70002384E141
:1091D800FFF7B2FEB14B5B78002B03D0AD4B1B7889
:1091E800012B07D0AD4B9B78002B12D0A94B1B78D5
:1091F800022B0ED1AA4B1B68002B07D0A94B0122CA
:109208001A70A74B1B680820984702E0A54B00225C
:109218001A70A04B1B78012B14D1A04B5B7801224C
:109228005340DBB2002B0AD19F4B1800FFF792FE88
:1092380003001A0001235340DBB2002B02D0954BE8
:1092480002221A70934B1B78022B14D1934B9B78F4
:1092580001225340DBB2002B0AD1934B1800FFF7D1
:1092680079FE03001A0001235340DBB2002B02D021
:10927800884B03221A70894B1B7B01225340DBB2B7
:10928800002B06D0834B1B78032B02D1814B042281
:109298001A70824B1B7E01225340DBB2002B09D08F
:1092A8007C4B1B78042B05D17A4B00221A707F4B1C
:1092B80000221A707A4B1B68002B1AD0754B1B784A
:1092C800032B03D0734B1B78042B12D1734B1B78E1
:1092D800002B0ED0764B1B7801225340DBB2002BBB
:1092E80007D0744B01221A706D4B1B6807209847F2
:1092F80002E0704B00221A700C243B19182200213E
:10930800180004F0B3FB21007B1800221A707B18A8
:1093180000225A607B1800221A727B180022DA6039
:109328005C4B1B78042B00D169E000DDA0E0032B27
:109338002CD000DD9CE0012B02D0022B11D097E04D
:109348000C217B185C4A5A607B1801221A707B1822
:1093580000225A827B1800221A82544B01221A706A
:1093680087E00C217B18544A5A607B1801221A7036
:109378004A4B9B689AB27B185A82484B5B689AB2F0
:109388007B181A82494B02221A7072E0434B5B69C0
:109398009AB20C243B195A82404B1B699AB23B196A
:1093A8001A82464B1800FFF7B3FD031E23D03B4B30
:1093B8001B78002B1FD03E4B1B7801225340DBB299
:1093C800002B18D03B1902221A723B193B4ADA606B
:1093D8003B4B0422DA703A4B0021180001F05AF88E
:1093E80003007B627B6A002B01D07B6A75E02F4B00
:1093F80005221A703DE02D4B03221A7039E0274BE5
:10940800DB699AB20C243B191A82244B1B6A9AB264
:109418003B195A82294B1800FFF77AFD031E23D007
:109428001E4B1B78002B1FD0214B1B780122534069
:10943800DBB2002B18D03B1902221A723B191F4AC3
:10944800DA601F4B0422DA701D4B0021180001F06E
:1094580021F803007B627B6A002B01D07B6A3CE029
:10946800124B06221A7004E0104B04221A7000E016
:10947800C046084B1B78002B24D00C23FB1818007F
:10948800FFF742FD03007B627B6A002B1AD07B6AE0
:1094980023E0C046B424002065240020B82400201E
:1094A800AC2400202E25002069240020A8240020B8
:1094B8002C2500202D25002068240020DC240020F5
:1094C80070240020074B1B68002B05D0054B1B6838
:1094D800054A12781000984700231800BD460BB0C3
:1094E80090BDC046AC240020A824002080B586B0DA
:1094F80000AF78607B681B88192B29D000DD8AE0D3
:10950800102B02D0112B05D085E07B689A88464B3A
:109518001A8085E0454B00221A707B689A88424B76
:109528001B889A4200D078E00120FFF72BFE030049
:10953800BB60BB68002B00D16FE03D4B1B68002B64
:1095480000D16AE03A4B1B68BA681000984764E09B
:109558007B689B79002B00D061E0364B1B78042B8D
:1095680041D04EDC032B29D04BDC012B02D0022B3F
:1095780012D046E00220FFF705FE0300FB60FB68FF
:10958800002B40D02A4B1B68002B3CD0284B1B6873
:10959800FA681000984736E00320FFF7F3FD030050
:1095A8003B613B69002B30D0214B1B68002B2CD032
:1095B8001F4B1B683A691000984726E01E4B032290
:1095C8001A700420FFF7DEFD03007B617B69002B26
:1095D8001DD0174B1B68002B19D0154B1B687A69D7
:1095E8001000984713E0144B00221A70134B1B68A5
:1095F800002B0ED0114B1B680F4A127810009847A9
:1096080007E0C0460BE0C04609E0C04607E0C04698
:1096180005E0C04603E0C04602E0C04600E0C046A0
:10962800C046BD4606B080BD082000202C2500207D
:10963800B0240020B4240020A8240020AC2400205A
:1096480071DF7047C046180072DF7047C0461800C7
:1096580079DF7047C04618007DDF7047C0461800A4
:1096680065DF7047C046180080B582B000AF0200C1
:109678003960BB1D1A80BB1D1B88DAB23B681A70A3
:10968800BB1D1B881B0A9AB23B680133D2B21A7001
:1096980002231800BD4602B080BD80B586B000AF79
:1096A800F860B9607A601A00BB1C1A807B681B8856
:1096B80012331A00BB1C1B889A4201D90C233EE0C6
:1096C8007B681B881A00BB689B1811221A707B687C
:1096D8001B8801339AB27B681A807B681B881A0042
:1096E800BB689B1810221A707B681B8801339AB2DA
:1096F8007B681A801723FB180F221A7019E01720AD
:109708003B1800229A567B681B881900BB685B18B7
:10971800F9688A5C1A703B181B785BB2DBB2013BB4
:10972800DAB23B181A707B681B8801339AB27B68DF
:109738001A801723FB181B787F2BE0D90023180009
:10974800BD4606B080BD80B584B000AFB9607A6010
:1097580019000F23FB18021C1A700C203B180A1C56
:109768001A807B681B88DA1C3B181B889A4201D92F
:109778000C2350E07B681B881A00BB689B180222E8
:109788001A707B681B8801339AB27B681A807B68E1
:109798001B881A00BB689B181C221A707B681B88E0
:1097A80001339AB27B681A800F23FB181B78042BAD
:1097B80020D027DC032B15D024DC012B02D0022B70
:1097C80008D01FE07B681B881A00BB689B18002222
:1097D8001A7019E07B681B881A00BB689B18012265
:1097E8001A7011E07B681B881A00BB689B1802225C
:1097F8001A7009E07B681B881A00BB689B18032253
:109808001A7001E0072306E07B681B8801339AB2CF
:109818007B681A8000231800BD4604B080BD90B54F
:1098280089B000AFF860B960BB1D1A80BB681B889F
:1098380009331A00BB1D1B889A4201D90C2351E039
:109848001423FB181800FFF7FBFE0300FB61FB69FC
:10985800002B01D0FB6945E0BB681B881A00FB6838
:109868009B1808221A70BB681B8801339AB2BB6820
:109878001A80BB681B881A00FB689B181B221A7089
:10988800BB681B8801339AB2BB681A80BB681B8807
:109898001A00FB68981814243B1901330622190092
:1098A80003F0D8FEBB681B8806339AB2BB681A80DF
:1098B8003B191B78002B07D1BB681B881A00FB6873
:1098C8009B1800221A7006E0BB681B881A00FB6808
:1098D8009B1801221A70BB681B8801339AB2BB68B7
:1098E8001A8000231800BD4609B090BD80B588B025
:1098F80000AFF860B9607A601A00BB1C1A80FB6878
:109908001B78012B05D1FB685B78002B01D107235D
:1099180096E07B681B889A1CBB1C1B889A420ED851
:10992800FB681B78012B0CD17B681B881A00FB682D
:109938005B78D3189A1CBB1C1B889A4201D90C234C
:109948007EE07B681B88BA1C1288D31A9AB21C2145
:109958007B18023A1A8016203B187A1812881A8047
:109968007B681B880233BA68D3183A1811001800AC
:10997800FFF772FE0300BB61BB69002B01D0BB6916
:109988005EE0FB681B78022B0CD11623FB181B88A2
:109998001C22BA1812889A4204D31F23FB180922E2
:1099A8001A701CE01F23FB1808221A70FB681B782A
:1099B800012B0ED1FB685B781A001C23FB181B884F
:1099C800934206D3FB685B781A001623FB181A80AB
:1099D80005E01623FB181C22BA1812881A801623D1
:1099E800FB181B88FE2B01D90C2329E016203B18F5
:1099F8001B88DAB27B681B881900BB685B180132C8
:109A0800D2B21A707B681B8801339AB27B681A80BD
:109A18007B681B881A00BB689B181F22BA1812782B
:109A28001A707B681B8801339AB27B681A807B683E
:109A38001A883B181B88D3189AB27B681A800023AF
:109A48001800BD4608B080BD80B586B000AFF8608C
:109A5800B960BB1D1A80BB681B881A1DBB1D1B88FB
:109A68009A4201D90C233AE01223FB181800FFF799
:109A7800EFFD03007B617B69002B01D07B692EE041
:109A8800BB681B881A00FB689B1803221A70BB6806
:109A98001B8801339AB2BB681A80BB681B881A00FE
:109AA800FB689B1819221A70BB681B8801339AB28D
:109AB800BB681A801223FB181A88BB681B88190018
:109AC800FB685B1819001000FFF7CEFD03001A00B1
:109AD800BB681B889B189AB2BB681A8000231800C1
:109AE800BD4606B080BD80B584B000AFB9607A606D
:109AF80019000F23FB18021C1A700C203B180A1CB3
:109B08001A807B681B88DA1C3B181B889A4201D98B
:109B18000C2329E07B681B881A00BB689B1802226B
:109B28001A707B681B8801339AB27B681A807B683D
:109B38001B881A00BB689B1801221A707B681B8857
:109B480001339AB27B681A807B681B881A00BB684D
:109B58009B180F22BA1812781A707B681B88013379
:109B68009AB27B681A8000231800BD4604B080BDF5
:109B780080B584B000AFB9607A6019000F23FB1874
:109B8800021C1A700C203B180A1C1A807B681B8860
:109B9800DA1C3B181B889A4201D90C2329E07B6800
:109BA8001B881A00BB689B1802221A707B681B88E6
:109BB80001339AB27B681A807B681B881A00BB68DD
:109BC8009B1811221A707B681B8801339AB27B6834
:109BD8001A807B681B881A00BB689B180F22BA186A
:109BE80012781A707B681B8801339AB27B681A80D6
:109BF80000231800BD4604B080BD80B584B000AF16
:109C0800B9607A6019000F23FB18021C1A700C2027
:109C18003B180A1C1A807B681B88DA1C3B181B88B7
:109C28009A4201D90C2329E07B681B881A00BB687B
:109C38009B1802221A707B681B8801339AB27B68D2
:109C48001A807B681B881A00BB689B180A221A7046
:109C58007B681B8801339AB27B681A807B681B88F3
:109C68001A00BB689B180F22BA1812781A707B6802
:109C78001B8801339AB27B681A8000231800BD46FE
:109C880004B080BD90B58BB000AFF860080011003B
:109C98007B600B23FB18021C1A700A23FB180A1C92
:109CA8001A702323FB1800221A702023FB18BA6BA2
:109CB80012881A8000237B627FE0FB685A687B6AFF
:109CC8009B00D31810243A191000190004231A0015
:109CD80003F0C0FC1623F9183B1900221800FFF7FF
:109CE800BFFC0300BB61BB69002B01D0BB698CE0E2
:109CF8001623FB181B780A22BA1812789A4259D1EF
:109D08002323FB181B78002B01D0002200E002223D
:109D180017217B181A70BB6B1B881A001623FB18B7
:109D28001B78D2187B181B78D218342308215B18AB
:109D3800DB191B889A4201DD0C2366E023217B187E
:109D48001B7801225340DBB2002B17D0BB6B1B885A
:109D580001339AB2BB6B1A80BB6B1B881A007B68F5
:109D68009B180B22BA1812781A70BB6B1B88013328
:109D78009AB2BB6B1A807B1801221A70BB6B1B88C6
:109D88001A007B689A181623F9181023FB18180074
:109D9800FFF766FC0300BB61BB69002B01D0BB6900
:109DA80033E0BB6B1B881622BA1812789B189AB23C
:109DB800BB6B1A807B6A01337B62FB681B881A00C5
:109DC8007B6A934200DA78E72323FB181B78002B81
:109DD8001AD0BB6B1A882023FB181B88D31A9AB297
:109DE8001E217B18013A1A807B181B88FF2B01D98A
:109DF8000C230AE02023FB181B887A68D3181E223C
:109E0800BA181288D2B21A7000231800BD460BB0D7
:109E180090BD90B589B002AFF860080011007B6072
:109E28000B243B19021C1A700A23FB180A1C1A700F
:109E38007A683B191978F868242308241B19DB1958
:109E48001B880193BB6A009313000222FFF71AFFD5
:109E580003007B617B69002B01D07B6918E07A687D
:109E68000A23FB181978F868242308241B19DB191E
:109E78001B880193BB6A009313001022FFF702FFAF
:109E880003007B617B69002B01D07B6900E0002324
:109E98001800BD4607B090BD80B582B000AF7860AD
:109EA8007B681B88052B0AD97B681A88C8231B0185
:109EB8009A4206D97B681B88164A934201D0072329
:109EC80023E07B685B88052B0AD97B685A88C823FE
:109ED8001B019A4206D97B685B880E4A934201D0DF
:109EE800072312E07B681B880A4A93420CD07B68E0
:109EF8005B88084A934207D07B681A887B685B882E
:109F08009A4201D9072300E000231800BD4602B099
:109F180080BDC046FFFF000080B586B000AFF86086
:109F2800B9607A601A00BB1C1A807B681B889A1D6E
:109F3800BB1C1B889A4201D90C234BE0FB68180014
:109F4800FFF7AAFF03007B617B69002B01D07B69C7
:109F580040E07B681B881A00BB689B1805221A70B2
:109F68007B681B8801339AB27B681A807B681B88E0
:109F78001A00BB689B1812221A707B681B88013371
:109F88009AB27B681A80FB681A887B681B8819005C
:109F9800BB685B1819001000FFF766FB03001A0086
:109FA8007B681B889B189AB27B681A80FB685A8862
:109FB8007B681B881900BB685B1819001000FFF745
:109FC80053FB03001A007B681B889B189AB27B68B6
:109FD8001A8000231800BD4606B080BD80B586B043
:109FE80000AFF860B9607A601A00BB1C1A80FB6881
:109FF8009B8802337B617B681B881A007B69D318B6
:10A008009A1CBB1C1B889A4201D90C2353E07B691C
:10A01800FE2B01D90C234EE07B69DAB27B681B88E2
:10A028001900BB685B180132D2B21A707B681B88B2
:10A0380001339AB27B681A807B681B881A00BB6858
:10A048009B18FF221A707B681B8801339AB27B68C1
:10A058001A80FB681A887B681B881900BB685B1824
:10A0680019001000FFF700FB03001A007B681B882B
:10A078009B189AB27B681A80FB689B88002B19D0C2
:10A08800FB689B68002B01D1072314E07B681B88C1
:10A098001A00BB689818FB689968FB689B881A00C7
:10A0A80003F0D8FA7B681A88FB689B88D3189AB2A1
:10A0B8007B681A8000231800BD4606B080BD80B5B5
:10A0C80088B000AFF860B9607A601A00BB1C1A80CB
:10A0D800FB689B6A002B01D1072375E01F23FB183F
:10A0E80000221A7067E0FB68996A1F23FB181A7828
:10A0F80013005B009B189B00CB18BB61BB699B8856
:10A1080002337B617B69FE2B01D90C235CE07B6900
:10A11800DAB27B681B881900BB685B180132D2B2BF
:10A128001A707B681B8801339AB27B681A807B6837
:10A138001B881A00BB689B1816221A707B681B883C
:10A1480001339AB27B681A80BB691A887B681B88BE
:10A158001900BB685B1819001000FFF785FA0300A7
:10A168001A007B681B889B189AB27B681A80BB69A7
:10A178009B88002B19D0BB699B68002B01D1072352
:10A1880022E07B681B881A00BB689818BB6999682D
:10A19800BB699B881A0003F05DFA7B681A88BB6963
:10A1A8009B88D3189AB27B681A801F217B181A786B
:10A1B8007B1801321A70FB682C229B5C1F22BA188C
:10A1C80012789A428FD300231800BD4608B080BD8C
:10A1D80080B588B002AFF860B9607A6000237B610F
:10A1E80012217B187A6812881A807B6800221A80EC
:10A1F800FB685B6B002B0FD0FB685B6B18787B18D8
:10A208001B887A68B968FFF7B3FC03007B617B6938
:10A21800002B01D07B6919E1FB681B6B002B0FD069
:10A22800FB68186B1223FB181B887A68B968FFF75C
:10A2380034FA03007B617B69002B01D07B6905E15F
:10A24800FB682E229B5C002B10D0FB682E22985CAA
:10A258001223FB181B887A68B968FFF774FA0300A1
:10A268007B617B69002B01D07B69EFE0FB682D22C5
:10A278009B5C002B0ED01223FB181A887968BB68E8
:10A288001800FFF7CCFA03007B617B69002B01D033
:10A298007B69DBE0FB689B78002B0ED01223FB1850
:10A2A8001A887968BB681800FFF7CEFB03007B614A
:10A2B8007B69002B01D07B69C8E0FB68DB78002B49
:10A2C80010D0FB68DB7858B21223FB181B887A6819
:10A2D800B968FFF708FC03007B617B69002B01D09C
:10A2E8007B69B3E0FB685B68002B11D0FB685B6897
:10A2F800002018561223FB181B887A68B968FFF7E4
:10A308007CFC03007B617B69002B01D07B699DE0AD
:10A31800FB681B89002B15D0FB6808331800BA6846
:10A328001223FB181B8801937B68009313000622F5
:10A338000221FFF76EFD03007B617B69002B01D0D2
:10A348007B6983E0FB681B8A002B15D0FB68103300
:10A358001800BA681223FB181B8801937B680093C6
:10A36800130007220321FFF754FD03007B617B697B
:10A37800002B01D07B6969E0FB681B8B002B15D093
:10A38800FB6818331800BA681223FB181B8801935E
:10A398007B680093130015221421FFF73AFD030090
:10A3A8007B617B69002B01D07B694FE0FB681B6AEE
:10A3B800002B0FD0FB68186A1223FB181B887A68D9
:10A3C800B968FFF7A9FD03007B617B69002B01D009
:10A3D8007B693BE0FB685B6A002B0FD0FB68586A1F
:10A3E8001223FB181B887A68B968FFF7F7FD03008A
:10A3F8007B617B69002B01D07B6927E0FB682C22FD
:10A408009B5C002B0ED01223FB181B887A68B96856
:10A41800F868FFF754FE03007B617B69002B01D0CD
:10A428007B6913E0FB681B78002B0ED01223FB1806
:10A438001B887A68B968F868FFF758FA03007B61E7
:10A448007B69002B01D07B6900E07B691800BD4661
:10A4580006B080BD80B582B000AF78607B68DB78DD
:10A468001A000423134001D1072300E00023180039
:10A47800BD4602B080BD80B582B000AF78607B6811
:10A48800DB78002B01D0072300E000231800BD462D
:10A4980002B080BD80B596B000AF786039604A23BD
:10A4A800FB181F221A804823FB181F221A807B687A
:10A4B800002B1DD07B681800FFF7CCFF0300FB645E
:10A4C800FB6C002B01D0FB6C4CE04A23FA182823C4
:10A4D800F9187B681800FFF77BFE0300FB64FB6C30
:10A4E800002B01D0FB6C3DE02823FB187B6505E0C1
:10A4F80000237B654A23FB1800221A803B68002B47
:10A508001DD03B681800FFF7B6FF0300FB64FB6C27
:10A51800002B01D0FB6C25E04823FA180823F91812
:10A528003B681800FFF754FE0300FB64FB6C002B2C
:10A5380001D0FB6C16E00823FB183B6505E00023FF
:10A548003B654823FB1800221A804A23FB181B8806
:10A55800D9B24823FB181B88DBB23A6D786DFFF738
:10A5680073F803001800BD4616B080BD80B582B0F0
:10A5780000AF78600A4B1B680422134001D10823FE
:10A588000AE07B68002B01D10E2305E0054B5B78C0
:10A598001A007B681A6000231800BD4602B080BD0F
:10A5A8005C2600209025002075DF7047C046180003
:10A5B80076DF7047C04618007ADF7047C04618003B
:10A5C8007BDF7047C046180080B582B000AF786066
:10A5D8007B681B781AB27B6801331B781BB21B029D
:10A5E8001BB213431BB29BB21800BD4602B080BD1C
:10A5F800B0B584B000AF78600E257C197B68180070
:10A60800FFF7E2FF030023807B191B880122134018
:10A618005A1E9341DBB21800BD4604B0B0BDD4D475
:10A6280080B582B000AF78607B685A88084B1B8879
:10A638009A4207D37B685A88054B5B889A4201D8AF
:10A64800012300E000231800BD4602B080BDC046CB
:10A658007C26002080B586B000AF7860294B1B8827
:10A66800294A934249D0294B1B780133DAB2274B48
:10A678001A70274B1A7B254B1B789A4215D3214B0E
:10A688001B88244A11001800FFF78EFF03003B6166
:10A698003B69002B31D01E4B9B69002B2DD01C4BE6
:10A6A8009B693A691000984727E0184B00221A70F6
:10A6B800174B1B7C002B13D0124B1B883B21180017
:10A6C800FFF776FF03007B617B69002B08D0104BF6
:10A6D8009B69002B04D00E4B9B697A691000984740
:10A6E8000B4B5B69002B08D00C217B1800221A70D9
:10A6F800074B5B697A1810009847C046BD4606B0FC
:10A7080080BDC04686260020FFFF0000842600206A
:10A71800602600207C26002090B585B000AF7860C8
:10A728001F4B7A6813CA13C313CA13C312681A607B
:10A738001C4B00221A707B681B68002B13D07B68A7
:10A748001B68194A1000190008231A0002F082FF3A
:10A75800154B1800FFF730FF0300FB60FB68002B68
:10A768000CD0FB6818E0104B1800FFF729FF030016
:10A77800FB60FB68002B01D0FB680DE00B4B01224E
:10A7880052421A800A4B00221A700A4A0A4B0021C8
:10A798001800FEF707FB03001800BD4605B090BD82
:10A7A80060260020B02600207C2600208626002077
:10A7B800842600205DA60100F0DE010080B584B08B
:10A7C80000AF274B1800FFF72BFF03001A000123E7
:10A7D8005340DBB2002B30D0224B1B78002B0CD01F
:10A7E800214B5B69002B34D03B1D00221A701E4B95
:10A7F8005B693A1D100098472BE01C4B1B78002B17
:10A8080003D1194B5B68FB6002E0174B9B68FB6048
:10A81800174BF96800221800FEF714FB0300BB6011
:10A82800BB68002B15D0104B9B69002B11D00E4B29
:10A838009B69BA68100098470BE00B4B5B69002BCB
:10A8480007D03B0001221A70074B5B693A001000E1
:10A858009847044B00221A70C046BD4604B080BD1C
:10A8680088260020B02600206026002084260020AC
:10A878009026002080B582B000AF78607B689A8807
:10A888000B4B1A800B497B68162208009B1808227C
:10A89800190002F0DFFE084B00221A70074BDB8913
:10A8A800002B01D1FFF78AFFC046BD4602B080BD2C
:10A8B8008626002088260020842600206026002086
:10A8C80080B584B000AF78600E4B012252421A80E6
:10A8D8000D4B00221A700D4B1800FEF7EDFA03001D
:10A8E800FB60FB68002B08D0094B9B69002B04D048
:10A8F800074B9B69FA6810009847C046BD4604B0EC
:10A9080080BDC04686260020842600209026002090
:10A918006026002080B584B000AF78607B6806337D
:10A92800FB60FB681A88144BDB899A421FD1FB68CD
:10A938001B8B022B1BD1FB681A331800FFF758FE3C
:10A94800031E02D0FFF73AFF11E00C4B1800FEF788
:10A95800B3FA0300BB60BB68002B08D0064B9B69A9
:10A96800002B04D0044B9B69BA6810009847C04676
:10A97800BD4604B080BDC046602600209026002059
:10A9880080B582B000AF786007497B68062208006E
:10A998009B180822190002F05DFEFFF70FFFC04662
:10A9A800BD4602B080BDC0468826002080B582B072
:10A9B80000AF78607B681B88502B12D01BDC122BF1
:10A9C80014D018DC102B02D0112B05D013E07B68B3
:10A9D8001800FFF74FFF0FE07B681800FFF770FFC4
:10A9E8000AE07B681800FFF795FF05E07B68180010
:10A9F800FFF7C6FF00E0C046C046BD4602B080BDB6
:10AA0800A0DF7047C0461800A2DF7047C046180094
:10AA180063DF7047C046180080B582B000AF786029
:10AA28007B681B781AB27B6801331B781BB21B0248
:10AA38001BB213431BB29BB21800BD4602B080BDC7
:10AA4800B0B584B000AF78600E257C197B6818001B
:10AA5800FFF7E2FF030023807B191B8801221340C4
:10AA68005A1E9341DBB21800BD4604B0B0BD80B594
:10AA780082B000AF786039603B689A887B689A82B8
:10AA8800C046BD4602B080BD80B582B000AF7860D8
:10AA980039607B68012252429A82C046BD4602B0A4
:10AAA80080BD80B584B000AF786039603B680633FC
:10AAB800FB60FB681A887B681B8A9A4212D1FB6884
:10AAC8001B8B022B0ED1FB681A331800FFF7B8FF57
:10AAD800031E03D07B6801229A7517E07B68002269
:10AAE8009A7513E0FB681A887B689B889A420DD197
:10AAF8007B689B69002B09D07B689B69FA681A32CE
:10AB08001100FA68128B78689847FFE7C046BD467F
:10AB180004B080BDF0B593B000AF786039602826E6
:10AB2800BB1903220021180002F0A0FFBB191A78F4
:10AB38000F218A43111C01220A431A70BB191A7883
:10AB48000F210A40111C10220A431A70BB195A78A7
:10AB58000F218A43111C01220A435A70BB195A78E3
:10AB68000F210A40111C10220A435A70BB199A7807
:10AB780006218A43111C02220A439A702C243B198D
:10AB88001C220021180002F071FF20003B181A78DF
:10AB980010210A431A7005007B1900225A607B199C
:10ABA8000022DA607B1900221A617B19BA195A61EE
:10ABB8007B1900229A617B681A7810217B189A7099
:10ABC8007B1803221A800C243B1903220021180049
:10ABD80002F04CFF3B191A780F218A43111C0122FD
:10ABE8000A431A703B191A780F210A40111C1022C7
:10ABF8000A431A703B195A780F218A43111C012203
:10AC08000A435A703B195A780F210A40111C102226
:10AC18000A435A703B199A7806218A43111C02226A
:10AC28000A439A703B199A7808218A439A703B190B
:10AC38009A7810218A439A703B199A7801210A431D
:10AC48009A701426BB1914220021180002F00EFF76
:10AC580031007B181022BA181A607B183A195A600A
:10AC68007B1801221A817B1800225A817B18142232
:10AC78009A817B6858887B680C337A187919FFF7B2
:10AC8800C3FE03001800BD4613B0F0BDF0B591B087
:10AC980000AF7860396024243B191C220021180079
:10ACA80002F0E4FE20003B181A7808210A431A70C3
:10ACB8003B181A7804210A431A7005007B190022F0
:10ACC8005A607B190022DA607B1900221A617B190D
:10ACD80000225A617B1900229A617B681A780C213C
:10ACE8007B189A707B1802221A8008243B190322C9
:10ACF8000021180002F0BAFE3B191A780F218A4386
:10AD0800111C01220A431A703B191A780F210A40B4
:10AD1800111C10220A431A703B195A780F218A43D2
:10AD2800111C01220A435A703B195A780F210A4014
:10AD3800111C10220A435A703B199A7806218A433B
:10AD4800111C02220A439A703B199A7808218A43F7
:10AD58009A703B199A7810218A439A703B199A780D
:10AD680001210A439A701026BB19142200211800E9
:10AD780002F07CFE31007B180C22BA181A607B188E
:10AD88003A195A607B1801221A817B1800225A81CD
:10AD98007B1814229A817B6858887B6804337A1858
:10ADA8007919FFF731FE03001800BD4611B0F0BD58
:10ADB80080B582B000AF786039607B68002B21D005
:10ADC8003B68002B1ED03B681B88502B13D01BDC24
:10ADD800102B02D0112B07D016E03A687B681100BF
:10ADE8001800FFF744FE10E03A687B68110018006D
:10ADF800FFF74AFE09E03A687B6811001800FFF780
:10AE080050FE02E0C04600E0C046BD4602B080BD2C
:10AE180090B589B000AF786039600823FB182D4AD7
:10AE280013CA13C312681A607B68002B02D03B68F0
:10AE3800002B01D10E2349E07B68012252429A82FD
:10AE48003B681A687B689A617B6800229A757A6801
:10AE58000823FB1811001800FFF7DAFD0300FB6157
:10AE6800FB69002B01D0FB6930E07B681A78182158
:10AE78007B189A707B1801221A807B689A1C7B18B1
:10AE880019000120FFF7BCFD0300FB61FB69002BE3
:10AE980001D0FB691AE03A687B6811001800FFF7D7
:10AEA80039FE0300FB61FB69002B01D0FB690DE053
:10AEB8003A687B6811001800FFF7E8FE0300FB61A1
:10AEC800FB69002B01D0FB6900E000231800BD4698
:10AED80009B090BDF4DE01002EDF7047C0461800AF
:10AEE80010DF7047C046180080B582B000AF7860A8
:10AEF8007B68032213405A425341DBB21800BD4617
:10AF080002B080BD80B584B000AFF8607A600A20D6
:10AF18003B180A1C1A807A683B181B881100180015
:10AF2800FDF7B6F9C046BD4604B080BD80B586B011
:10AF380000AFF860B9603B60BB1D1A80BB68002B8E
:10AF480001D107232AE0BB681800FFF7CDFF0300F3
:10AF58001A0001235340DBB2002B01D007231DE068
:10AF6800104BBA681A60104BBA1D12881A800F4B22
:10AF78003A681A600E4AFB6811001800FFF7B0FF24
:10AF880003007B617B69002B01D07B6906E0094BDC
:10AF980001221A701620FFF79FFF03001800BD4614
:10AFA80006B080BDBC260020C0260020B4260020A4
:10AFB8000DAF0100B826002080B582B000AF7860E0
:10AFC8007B68002B01D10E2303E0044B7A681A60DA
:10AFD80000231800BD4602B080BDC046C42600202C
:10AFE800F8B504AF00F024F8044600F0C9FE0C4D93
:10AFF800284600F025FB0B4800210160284600F098
:10B008001FFB094800680949014007264E432846A6
:10B0180000F0C2FA0680002C01D100F0B3FEF8BDA2
:10B02800C82600200071004008750040FF0300009A
:10B0380080B500AF00F0ADFE0121084080BDD4D43A
:10B04800F8B504AF164800F0EFFA164E306800283D
:10B0580025D0134C144D2046A847002030602046C8
:10B06800A8471248012101602046A8471048806877
:10B0780080087C2813D82046A8472046A84700887F
:10B088007D21CE00801980B2094908602046A84772
:10B098002046A8474088801980B205494860F8BD15
:10B0A800CC2600204C91004031B601004890004069
:10B0B80040950040F8B504AF164800F0B5FA164EB2
:10B0C8003068002825D0134C144D2046A84700208E
:10B0D80030602046A8471248012101602046A84751
:10B0E8001048806880087C2813D82046A847204646
:10B0F800A84780887D21CE00801980B20949086060
:10B108002046A8472046A847C088801980B205492C
:10B118004860F8BDCC2600204CA1004031B60100A3
:10B1280048A0004040A50040BFB506AF054600F066
:10B1380039F8044600F024FEA888E98809040818AC
:10B14800039028886988090408180290684602A9AB
:10B15800094D2A4600F0C6FA284600F011FA01996E
:10B168008180009A0280090CC180110C4180002C5A
:10B1780001D100F007FEBFBDCC260020B0B502AF5C
:10B18800044600F00FF8054600F0FAFD044800F008
:10B19800F7F90481002D01D100F0F4FDB0BDC046DF
:10B1A800CC26002080B500AF00F0F3FD0121084057
:10B1B80080BDD4D4F8B504AF224800F027FA224D58
:10B1C800286800280DD01F4800F020FA00212960C7
:10B1D80000F01CFA1D490C6800F0C4F9214600F083
:10B1E8006DFB184C204600F011FA686900281DD044
:10B1F800204600F00BFA00206861204600F0B2F902
:10B208002126F000201800F048FBC00708D00D46A2
:10B218000C4800F0FBF9E8B20C4948600A4D05E01B
:10B22800204600F09FF9300101212154054800F023
:10B23800EDF9E869002804D0024800F0E7F9002099
:10B24800E861F8BD0C2000200821004018250040C6
:10B25800F0B503AF87B00E46069000F0DFF8029015
:10B2680000F08EFD224D284600F0D0F94120C000A4
:10B2780028580590832080002C58284600F0C6F9ED
:10B28800A0190599411A06980191FF2925D8002E81
:10B2980023D00596069000780490284600F0B6F969
:10B2A80021242601A85D0390284600F05BF9039845
:10B2B800002808D00020A855284600F0A7F90D4816
:10B2C8000499016004E0E0002818049900F0F6FAF7
:10B2D800059E0698401C761ED9E70298002801D1E1
:10B2E80000F050FD0198010A4842484107B0F0BDFE
:10B2F8000C2000201C250040D0B502AF00F08EF8CD
:10B30800044600F03DFD044800F0FCF8002C01D193
:10B3180000F038FDD0BDC0460C200020B0B502AF0B
:10B3280000F07CF8044600F02BFD212000010549BF
:10B338000D5C002C01D100F025FDA81E411E88419E
:10B34800B0BDC0460C200020FEB506AF0E46044630
:10B358001E4D284600F0FAF8012040041C490090D0
:10B368004860284600F0F2F80194207819494860AE
:10B37800701E02900024184E0298844212D028466B
:10B3880000F0E4F8641C0198005D12494860284602
:10B3980000F0DCF830680028F9D00E48006800207A
:10B3A8003060E9E7094C204600F0D0F83068002802
:10B3B800F9D00848006800203060044800F0C6F85A
:10B3C8000098034908600320FEBDC046D826002027
:10B3D80008050050184500400841004080B500AFFE
:10B3E80000F012F8C0B203280AD106480121FFF77D
:10B3F800ABFFC0B2032803D1642000F08DF803200E
:10B4080080BDC04604DF010080B500AF02480121BD
:10B41800FFF79AFFC0B280BD05DF010080B500AF1D
:10B4280000F0B7FC0121084080BDD4D4FEB506AFBA
:10B43800254D6C1C204600F0D1F8244800680128EE
:10B4480036D1204600F0CAF8214806686868301AE4
:10B4580002D220494018401CBFF35F8F296900229F
:10B46800081828616869019250416861BFF35F8FCD
:10B478006E60BFF35F8FAD68BFF35F8F204600F04B
:10B4880065F8A819010E02D0FF2109064018010E1F
:10B498000D4D0ED10E49C863204600F09FF80B48A9
:10B4A80001990160BFF35F8F01202870BFF35F8FA0
:10B4B800FEBD02AA012010700748009007482B2102
:10B4C800074B01F0DBFAC046E0260020401101409E
:10B4D80004150140FFFFFF0044DF010018DF0100F1
:10B4E80008DF0100B0B502AF044621252801205C21
:10B4F800022806D0204600F0C7F9E800201800F01E
:10B50800C3F9B0BDD0B502AF0446FFF7EBFF212069
:10B51800000102212154D0BD80B500AF0A4900289E
:10B5280010D00A46013A00BF00BF00BF00BF00BFED
:10B5380000BF00BF00BF00BF00BF00BF00BFF1D108
:10B54800401EECE780BDC046E703000080B500AFB1
:10B558000178002901D0401C80BD014801F084FA1F
:10B5680054DF010080B500AF21210901415C0229A7
:10B5780000D080BD014801F077FAC04654DF0100D1
:10B5880080B500AF0188002901D0801C80BD01482A
:10B5980001F06AFA54DF010080B500AF0188002984
:10B5A80001D0801C80BD014801F05EFA54DF010023
:10B5B80080B500AF0B46017813201122002902D173
:10B5C800054902D002E0034900D10246184601F0BD
:10B5D80093F880BD77DF010064DF010080B500AF1C
:10B5E8000178002901D0401C80BD014801F03CFAD7
:10B5F80088DF010080B500AF0178002901D0401C28
:10B6080080BD014801F030FA88DF010080B500AF45
:10B6180021210901415C022900D080BD014801F0C7
:10B6280023FAC04688DF010080B500AF01880029F1
:10B6380001D0801C80BD014801F016FA88DF0100A6
:10B6480080B500AF0188002901D0801C80BD014869
:10B6580001F00AFA88DF0100F8B504AF1E48FFF7C9
:10B66800C9FF1E4D286800280ED01B4C2046FFF746
:10B67800C1FF002028602046FFF7BCFFBFF35F8FA3
:10B6880001214170BFF35F8F1348FFF7B3FF68696B
:10B6980000280ED0104C2046FFF7ACFF0020686150
:10B6A8002046FFF7A7FFBFF35F8F01210170BFF3AB
:10B6B8005F8F0948FFF79EFFE86900280AD0064C0B
:10B6C8002046FFF797FF0648002606602046FFF74A
:10B6D80091FFEE61F8BDC046F82600200831004011
:10B6E800C4340040B0B502AF8CB0044601928888DB
:10B6F800CA88120410180390088849880904081891
:10B70800029001A8069002A805900830079005A8A5
:10B718000B900025082D06D00BA800F09FF808A96B
:10B728004853AD1CF6E70998A08008992180000CC1
:10B73800E080080C60800CB0B0BDD4D480B500AFF8
:10B7480002460248001D00F003F980BDFC260020D7
:10B7580080B500AF0B4601460248001D00F018F9FD
:10B7680080BDC046FC260020DCB504AF0C4601466F
:10B7780000930348001D234600F0B1F8DCBDC04625
:10B78800FC260020D0B502AF04460548401CFFF750
:10B79800DDFEE0B280000349085803490860D0BDC7
:10B7A800FC260020A8DF01000C050050D0B502AF30
:10B7B80004460548401CFFF7C9FEE0B28000034973
:10B7C800085803490860D0BDFC260020A8DF010006
:10B7D8000805005080B500AF00F004F8012148408A
:10B7E80080BDD4D4D0B502AF04460748401CFFF74B
:10B7F800F5FEE0B280000549095805480068084090
:10B80800411E8841D0BDC046FC260020A8DF0100AB
:10B8180004050050F8B504AF064600F018F80546D0
:10B8280000F0AEFA3046FFF7D5FF0446002803D0F3
:10B838003046FFF7BBFF02E03046FFF7A3FF002DBD
:10B8480001D100F09FFA012044402046F8BD80B5A0
:10B8580000AF00F09EFA0121084080BD80B500AF1E
:10B86800006801688A1C02604068098800F001F8D5
:10B8780080BDD0B502AF00688CB2FFF7D5FE008955
:10B88800A04200D32046D0BDD0B502AF0446204622
:10B8980000F003F8C007FAD1D0BDD0B502AF01213E
:10B8A8000902425844186368934203D0511C21602E
:10B8B800D1B2415C981A421E9041D0BDF0B503AF99
:10B8C800012215024459421953681E1BAE4201D188
:10B8D800641C1460DCB20155581C5060F0BDF0B512
:10B8E80003AF85B0049302910646BD6803921146E2
:10B8F8002A4600F02DF80446002810D00196049836
:10B90800854200D3049D2046029E31462A4601F016
:10B91800CFFF01983146039A049B00F039F820467E
:10B9280005B0F0BD80B500AF02460068002805D11B
:10B938000020C143104602C0114680BD084601F0F0
:10B948008FF880B500AF00F024FA0121084080BDCF
:10B95800F8B504AF15460E460446FFF7F2FF00900F
:10B9680000F00EFA09492046FFF7DCFF0C46314685
:10B978002A4600F077F805462068401C20600098A9
:10B98800002801D100F0FEF92846F8BDC8DF010003
:10B99800FEB506AF029316460C460546FFF7D1FFE3
:10B9A800019000F0EDF909492846FFF7BBFF0D4665
:10B9B80021463246029B00F04BF82868401C28605C
:10B9C8000198002801D100F0DDF9FEBDD8DF0100A3
:10B9D80080B500AF4018401E00F002F880BDD4D4F6
:10B9E80080B500AF4A1E0B465340934202D94942E4
:10B9F800084080BD002900D180BD02481C21024AB0
:10BA080001F06AF8E8DF010004E0010080B500AF4A
:10BA18004A1E0B465340934205D90A18521E494202
:10BA28001140081A80BD02485321024A01F05AF811
:10BA38004FE0010078E00100B0B502AF0D460446C2
:10BA480000F046FB002800D1054628462146B0BD37
:10BA5800D0B502AF0446001D00F01AF82068401A5D
:10BA68002060D0BDDFB506AF13460A460446011D67
:10BA780001A800F0C9F80298002805D020680399A9
:10BA880040182060019800E0002004B0D0BDD4D454
:10BA9800F0B503AF8DB00E4604461046194600F0C7
:10BAA80093F805460020316070606268002A0391AF
:10BAB80021D0E3689642019315D202957518009536
:10BAC80095423AD8A5682B460833B342334605D980
:10BAD80000230099491B0AC5083D2B465A6063603C
:10BAE8000123029D56E004965368002B1BD09E420A
:10BAF80015D31A46F7E70295A56828460830B042DC
:10BB080005D900208919491B2960686000E035467D
:10BB1800E168284600F0E9F86560029D41E0039974
:10BB2800711899421ED80592116806915118B142B0
:10BB380008D85660736002231AE01C482B21214A5A
:10BB480000F0CAFF1B480C9006A80B901A480A90F0
:10BB580005A90991089004A80790184807A9184A48
:10BB680000F0C0FF11482B21114A00F0B5FF401C1E
:10BB780016460FE07268002A0FD03168711891429A
:10BB8800F5D15168002454601268716031688918D1
:10BB98003160401C834204D0ECE73046019900F044
:10BBA800A4F8284603990DB0F0BDC04688E001000E
:10BBB800C4E00100D5D3010029BD010029DD010041
:10BBC800D4E00100B4E00100DCB504AF0A46044645
:10BBD800082900D8082204211046FFF7F9FE21465B
:10BBE800FFF72AFF002800D0DCBD04480090044875
:10BBF8002B2101AA034B00F041FFC046E4E00100FD
:10BC080024E0010014E00100F0B503AF89B00D464F
:10BC1800044610461946FFF7D7FF089169680023C4
:10BC2800042200295ED0029306900392049407959B
:10BC38000C460E68089886421ED32046069D294663
:10BC4800FFF7E4FE05900028214607D0294625463F
:10BC580008352846FFF7DAFE29180830A219089B8C
:10BC6800CB18934208D8D51A0ED0DE1C03239E4366
:10BC780033460833934211D9616800292546D6D145
:10BC8800049C039A029B2DE00022079D6A60666867
:10BC980062602A1D059B002B16D118E00022079B25
:10BCA8005A60636801936260079A121D059B002B16
:10BCB80007D03560019B736041C4083C1460049C44
:10BCC8000BE028463446019E41C4083C26461660CF
:10BCD8000029049C039A029B04D0216006986060A6
:10BCE8000822089BA35009B0F0BDB0B502AF0268A6
:10BCF80083188B4208D2DC1C0325AC4308348C42E1
:10BD080002D95118C91A0160B0BDD4D480B500AFAA
:10BD1800084602490B2200F0EFFC80BDF4E0010068
:10BD280080B500AF006800F0ADFD80BDBCB504AFC4
:10BD3800002301AC002A09D0056801AC002D05D00C
:10BD480001916A4340686C461346FFE72360019AF5
:10BD5800002A04D00099002901D0FFF7F9FCBCBDE6
:10BD680080B500AF01210A46FFF7E0FF80BD80B52E
:10BD780000AF80BD80B500AFFEE780B500AF80BDE5
:10BD880072B6704762B670474008401C0138FDD152
:10BD98007047EFF31080704780B500AF0168002945
:10BDA80003D040680122FFF7D3FC80BDB0B502AFD5
:10BDB80084B0551815D2044601684800854200D859
:10BDC8000546082D00D80825626801A82B4600F012
:10BDD8000FF80198012807D002982560606004B028
:10BDE800B0BD002000F039F80399029800F035F84A
:10BDF800B0B502AF0446002B05D50120002504216B
:10BE080065502060B0BD1D46002908D001231046AA
:10BE18001A462B46FFF7A8FC002811D109E0002D8F
:10BE28000DD0FCF711FA01212846FFF787FC0028FE
:10BE380006D101206060082165502060B0BD012056
:10BE480060600020082165502060B0BD80B500AF5B
:10BE5800024608461146FCF771F980B500AF002884
:10BE680001D100F003F8FFF7F1FFD4D480B500AF9B
:10BE780002482321024A00F035FEC046FFE00100D7
:10BE880010E10100F0B503AF8BB013460A46044633
:10BE9800D80736D111461278002A39D00493029473
:10BEA800002503910B46284604E01B1900191A784F
:10BEB800002A28D05B1C54B2002CD4B2F5D5802CB3
:10BEC80007D11A785C782402A21880189A18931C53
:10BED800EDE746424641354305955508022635406B
:10BEE8000121890724BA069060010840E101401841
:10BEF800400F18184019059D9108314043180698BD
:10BF0800D5E75E080EE00026102805D3324604E087
:10BF1800012000260A4619E00122029C049B1542D2
:10BF2800039A25D0002E0FD0039204932546FCF7E0
:10BF38008BF9012430462146FFF700FC00281AD06F
:10BF48002C46049B039A01E0012000260021099158
:10BF58000890079607A80E4900F0DCFC00280ED1CF
:10BF680009980899079A22606160A0600BB0F0BD3B
:10BF78004600D7D5002420463146FFF76EFF054816
:10BF88000090054856210AAA044B00F077FDC046E8
:10BF980020E10100A0E1010048E1010038E10100D1
:10BFA80080B500AF08460249052200F0A5FB80BD18
:10BFB800B0E10100F0B503AF87B084680125EE0257
:10BFC800802908D3B14201D2022504E00A0C01D02D
:10BFD800042500E003250268121B9542224605D875
:10BFE80043689A18802911D2117035E00690069896
:10BFF80005960E4621462A46FFF7D8FE3146059E8D
:10C008000698826843689A188029EDD306943F24DD
:10C018000B460594234034467F26F64304969E1922
:10C028008B09A14205D25670C0210B431370069CA0
:10C0380012E003960C0B0294059C2340049E9B1966
:10C0480001930B0C069C0CD10399917001995170C6
:10C05800E021029B0B43137029198160002007B06F
:10C06800F0BD0F23DB43890C19430091059B02990E
:10C0780019408B19039ED6700199917053700099DD
:10C08800B2E7F0B503AF81B014460546866800688C
:10C09800801B824209D868688019224601F008FC92
:10C0A8003019A860002001B0F0BD28460091314643
:10C0B8002246FFF77BFE0099AE68ECE780B500AF3B
:10C0C80013460A46014900F025FC80BD20E1010025
:10C0D800D0B502AF02460120C3075C1A0023A24272
:10C0E800024605D84C1E6140A14206D91040D0BD79
:10C0F8001A464C1E6140A142F8D818461040D0BDDF
:10C10800F0B503AF8DB004930446007901250028EB
:10C11800284670D10B46B868019061792668B07AD4
:10C12800000608D4039203200222002937D1394996
:10C13800029337D037E000290CD103CE0293CB68A5
:10C148002F4903920322083E9847029B039A00282E
:10C15800284650D108A801210170079029480A9063
:10C16800F0680C90B0680B90706806903068059085
:10C1780005A80990194600F085FF00280DD105A8EB
:10C188002149022200F07EFF002806D10198C268EA
:10C1980009A904989047002827D028462BE01C4975
:10C1A800029300D1024609CEDB68083E9847002872
:10C1B8002846039A029B1ED103CEC96800911946EE
:10C1C800009B083E98470028284614D103CECB6828
:10C1D8000D490222083E9847002828460BD10198AD
:10C1E800C26804983146904705E00A98C3680998E0
:10C1F8000649022298476571207120460DB0F0BDAE
:10C20800BCE10100D8E10100BAE10100BFE1010091
:10C21800B8E10100B5E10100F0B503AF8BB00793B9
:10C228000A920546FC68002906D09448401CAE686E
:10C23800304038D02B2238E0AE68631C2D22300203
:10C24800099637D507991029069236D200293AD08F
:10C25800059308950494032308461840039004297D
:10C2680000D38DE000221046039E002E049C089DFA
:10C27800059B29D00A998B564021C9438B4200DD82
:10C28800401C012E0DD00A9B9A180123D3568B42CD
:10C2980000DD401C022E04D00223D2568A4200DD63
:10C2A800401C059B10E011210A04400D03193002BF
:10C2B8000996C7D400200A9008E00A981E4600F0A4
:10C2C8001FFC334600E00020C318069AB8680590A2
:10C2D800AE89B34216D204940999C80126D40692AD
:10C2E8002A46664808400890F31A4800800F00253F
:10C2F8002C46C04678440079400087447D017B0184
:10C308001C4679E0264630CD0798009020462946FD
:10C318000A9B00F067FE00287DD1EB68204605994E
:10C3280032469847014608460BB0F0BD1C46A9683E
:10C3380053480391084053494018A860E8680290A0
:10C34800296808956D68079800900991084629465C
:10C358000A9B00F047FE01210028E4D10A91301B16
:10C36800002684B2B0B2A04233D22A69302109989B
:10C378009047761C0028F5D00A9908460BB0F0BD06
:10C388000C250D400022104603E0121D954200D1F5
:10C398006AE70A998E564021C9438E4200DD401C47
:10C3A8000A9CA618012434578C4207DC022434570F
:10C3B8008C4208DCF4568C42E7DD08E0401C02247D
:10C3C80034578C42F6DD401CF4568C42DDDD401CAF
:10C3D800DBE7EB6809980599049A984700280A99B9
:10C3E800A1D10898039981600299C160002108468B
:10C3F8000BB0F0BD98B244080393106809905668D2
:10C40800A0B2A9B281420AD2326909980899904724
:10C418006D1C0028F4D0012108460BB0F0BD079828
:10C428000090099D28463146069A0A9B00F0DAFDDD
:10C438000121002800D076E7F36828460D460599C3
:10C44800049A98472946002800D06CE70398001BF7
:10C45800002480B20A900794A0B201210A9A90425F
:10C4680000D30799099800D35DE732690D4608990A
:10C4780090472946641C0028EED054E7FFFF1F00B0
:10C488000000E09F30000020B0B502AF84B01C4629
:10C49800054600686B68DB689847014602A80022D9
:10C4A80042710171029539690091BA68FB682146A9
:10C4B800FFF726FE396A00913B4614330ECBFFF78F
:10C4C8001FFE40790399C2430A43D20701D00843AB
:10C4D8000DE00299887A000604D403C9CB6807499D
:10C4E800022203E003C9CB680349012298470121CE
:10C4F8000140084604B0B0BDC1E10100D4E101002B
:10C50800F0B503AF87B00E4603908368D900880F53
:10C518002DD0002902962CD4102A06924DD2002A3A
:10C5280000D1AAE005930321104608400490042A8C
:10C5380000D3B3E000231946049800284FD0F056E2
:10C548004022D243904200DD491C0498012846D07D
:10C55800F31801201856904200DD491C049802285F
:10C568003DD002201856904239DD491C37E006922A
:10C5780088E005930398C18900292AD0B2180020C1
:10C58800069035460B4606E0651C281B069C0419D8
:10C5980006945B1E21D095421ED02C460026AD572E
:10C5A800002DF1D5EDB2E02D03D3F02D03D3251DD9
:10C5B800EBE7A51CE9E7E51CE7E7304611461C4612
:10C5C80000F09EFA2346014603988289914259D287
:10C5D8000AE00026069600E01E46891B029E059B7F
:10C5E8000398828991424DD2424818400490521AC9
:10C5F8005800810F002425467944097949008F4461
:10C6080005010305154601E090B24508019203981B
:10C6180001680591466801200390A8B2A1B2814241
:10C628000AD23269059804999047641C0028F4D00E
:10C638000399084607B0F0BDF36805980299069A71
:10C6480098470028039915D10198401B002480B20F
:10C6580006900394A0B20121069A904200D3039950
:10C6680008D2326905980D46049990472946641CFA
:10C678000028EFD0084607B0F0BD00210398828952
:10C688009142B1D3039801684068C36808463146AF
:10C69800069A98470146084607B0F0BD0C460C209C
:10C6A800104000231946224603E01B1D984200D182
:10C6B80042E7F5564024E443A54200DD491CF5183D
:10C6C8000126AE57A64208DC0226AE57A64209DC70
:10C6D800029EAD56A542E8DD09E0491C0226AE5788
:10C6E800A642F5DD491C029EAD56A542DDDD491C7A
:10C6F800DBE7C046FFFF1F00D0B502AF0368406804
:10C70800C4681846A047D0BDF0B503AF8BB0164635
:10C7180002910346C1087D290190114651D308961C
:10C72800721E0024524E02980990019D07922846D5
:10C73800314601F00DFA0694079B19190A91CA1E91
:10C7480008998A4200D383E019460490464303952A
:10C75800AA1B93B29B08474843435C0C6600474DAD
:10C76800A85D059009984318D81E059901700A9884
:10C77800801E0899884265D2A8199E1E407830709C
:10C788000A98401E884257D264206043101A80B22B
:10C798004200A85C5B1E18700A98884245D2A81807
:10C7A8004078079A09998854091F0991069C241F03
:10C7B800334803998142049B1D462D4EB7D8089EE5
:10C7C8003119092B1CD90A91891EB14247D29AB254
:10C7D8009208284C5443620C64245443181B80B2BA
:10C7E8004400264B185D029D68540A98401EB042CA
:10C7F8003AD21B195B782B540198002805D109E01F
:10C808001A46029D0198002804D0002A02D1084641
:10C818000BB0F0BD491EB14221D25000174A101882
:10C828004078685408460BB0F0BD06980899081877
:10C83800401E114A00F03CF906980818801E0E4A5E
:10C8480000F036F906980818C01E0B4A00F030F9B7
:10C85800069808990818001F074A00F029F9064A9F
:10C868000846314600F024F9034A314600F020F921
:10C87800102700007B140000C4E101001BE2010046
:10C888007F969800F0B503AF87B00C468D68C968ED
:10C8980004910123D9052A022A4608D52A0104D47D
:10C8A8000A22A2810922120600E01A062A430395E9
:10C8B8000A43A2600921154A0F2305461D40555D0C
:10C8C80005AE7618B61E357005090AD01D40535DB1
:10C8D80005AD6D18ED1E2B70891E000AECD1481E9F
:10C8E80001E0881E491E0922511A019105A908185C
:10C8F80000900121064A02232046FFF78DFC039988
:10C90800A1600499E16007B0F0BDC046B8DF01003E
:10C91800E3E20100F0B503AF8BB01646DA0700D0AA
:10C9280090E00291069003933478002C00D18FE0B8
:10C938000298C0680590002004900120019003E04F
:10C948003478002C00D183E0751C60B2002808D42C
:10C95800069829462246059B984700287BD12E1920
:10C96800EEE7802C17D0C02C1BD100200A903B4842
:10C9780009900298089006980790049CE100039A91
:10C98800505851184A6807A99047002863D1641C79
:10C9980004942E46D4E72878697809020C18F51C07
:10C9A800D6E7E0070BD12D480022A10715D5297835
:10C9B8006B781B025B18AD1C610711D415E0287851
:10C9C800697809020818A9780904EA781206511842
:10C9D80008182D1D0022A107E9D41346610704D5C4
:10C9E80029786A7812025218AD1C210703D42E4602
:10C9F800E10608D40BE029786E78360271180491A4
:10CA0800AE1CE10603D5D900039B59188B88A106F3
:10CA180001D4039C03E0D100039C61188A8807A90C
:10CA2800CA818B8109900298089006980790049D06
:10CA3800EA00A058A2185268904700280BD16D1C34
:10CA480004957DE7CC685A083146A0470BB0F0BD85
:10CA580000200BB0F0BD01980BB0F0BD20000060C5
:10CA680080B500AF00F0DEFA80B500AF024602489C
:10CA78002B2100F031F8C046F0E1010080B500AF8D
:10CA880088B001910090039302920648079002A88B
:10CA980006900548059068460490044804A9BA68B9
:10CAA80000F020F8F5D2010005D301008CDB01006D
:10CAB800FEB506AF019100900548059069460491BE
:10CAC800039001A80290034802A900F00BF8C046A1
:10CAD800D5D30100AADD010080B500AF4900491C8B
:10CAE80000F000F880B500AF86B00291019003A86D
:10CAF80001210181049201A90391FBF7EFFAD4D433
:10CB0800F0B503AF92B00246C41C0326B443251AFD
:10CB1800A94205962AD2002900D1EDE10846304005
:10CB28001190042900D3EAE100231846119900293D
:10CB380000D14EE2D4564021C9438C4200DD401C4E
:10CB4800119C012C00D144E2D2180123D3568B4208
:10CB580000DD401C119B022B00D13AE20223D25681
:10CB68008A4200DC35E2401C12B0F0BD4B1B98082D
:10CB78000090D0D00F931846304010900023944274
:10CB880011931BD0111BF3430026994200D8DEE114
:10CB9800334690574021C943884200DD5B1C012D74
:10CBA8000CD0941901202056884200DD5B1C022D10
:10CBB80004D002202056884200DD5B1C5419109DC9
:10CBC800002D119A1AD0F4480F9901401194601859
:10CBD800002284564021C9438C4200DD0122012DE8
:10CBE8000BD0012404578C4200DD521C022D04D0C6
:10CBF80002240057884200DD521C119CD018049072
:10CC0800F74D009914E00099091B069E0298341804
:10CC1800119A100AF14B1A4018408018EE4B5843ED
:10CC2800000C049BC31804930398002800D054E117
:10CC38000694002900D14DE1C0290C4600D3C02438
:10CC48002046059E30400390A3003F200001184075
:10CC58000894029300D187E00091069A1018079073
:10CC68001846103801094B1C11461A4632400192E9
:10CC78000A46103230287AD2002011900B460198CB
:10CC880000280099C0D007988242104601D010466B
:10CC980010300F90109259688A09C943C909114385
:10CCA80029401A6818469309D243D2091A432A40E0
:10CCB800119BD218891882689309D243D2091A4362
:10CCC8002A405118C2689309D243D2091A432A400C
:10CCD800511801980128119195D0109841688A0936
:10CCE800C943C90911432940026893090E93D243E5
:10CCF800D2090E9B1A432A40119BD2188B188268BE
:10CD08009109D243D2090A432A40D118C26890092E
:10CD1800D243D20902432A4051180198022811919E
:10CD280000D170E70F9841688A09C943C9091143BE
:10CD38002940026893091093D243D209109B1A43E1
:10CD48002A40119BD218891882689309D243D209C4
:10CD58001A432A405118C0688209C043C0091043C9
:10CD68002840401811904EE7002011904CE7B3433B
:10CD78000F9300201190164688E0109010460C92F0
:10CD880052689409D243D20922432A400D9202687C
:10CD98009009D243D40904432C4018680E91099392
:10CDA8002B468509C043C2092A431A400B9E706866
:10CDB8008509C043C009284318403568A909ED43CF
:10CDC800ED090D431D40119969184018B1688D0986
:10CDD800C943C90929431D4619400818F1688B0938
:10CDE800C943C9091943294008180A9E31688B09A3
:10CDF800C943C90919432940081871688B09C943EF
:10CE0800C909194329400818B1688B09C943C909D8
:10CE1800194329400818F1688B09C943C9091943FE
:10CE28000E9B294008181018099E71688A09C94381
:10CE3800C909114329400818B1688A09C943C909B1
:10CE4800114329400818F1688A09C943C9091143DF
:10CE58002940081820180D9908180C9CA1688A09FF
:10CE6800C943C909114329400818E1688A09C94317
:10CE7800C9091143109A2940081811900F98001FEA
:10CE88000F9016461946089C00D1F8E60B910798B2
:10CE9800864233460AD183421A460CD18242114651
:10CEA8000ED10A968142084611D166E733461033FF
:10CEB80083421A46F2D01A46103282421146F0D006
:10CEC800114610310A968142084600D155E70846B6
:10CED800103052E7049812B0F0BDFC2008990140C8
:10CEE800890070588209C043C409039814432C4030
:10CEF800012853D1049863E0002012B0F0BDB1437B
:10CF08000023184603E01B1D994200D10EE6D556B2
:10CF18004024E443A54200DD401CD5180126AE5745
:10CF2800A64208DC0226AE57A64209DC059EAD578C
:10CF3800A542E8DD09E0401C0226AE57A642F5DD11
:10CF4800401C059EAD57A542DDDD401CDBE733469E
:10CF580002E0361D00D11CE694574021C9438C429B
:10CF680000DD5B1C941901202056884208DC022051
:10CF78002056884209DC059820568842E9DD09E0F8
:10CF88005B1C022020568842F5DD5B1C0598205664
:10CF98008842DEDD5B1CDCE7FCFFFF7F71184A6816
:10CFA8009309D243D2091A432A4014190228049833
:10CFB80006D089688A09C943C909114329400C194F
:10CFC800210A064A144011400919034A4A43110C20
:10CFD800081812B0F0BDC04601000100FF00FF00B4
:10CFE80001010101F0B503AF81B01C460D461121C6
:10CFF80009048A420AD02B69064611469847014619
:10D008003046002902D0012001B0F0BD002C05D027
:10D01800BA68EB682146984701B0F0BD002001B01E
:10D02800F0BDD4D480B500AF84B002460348029066
:10D0380003A80190024801A9FFF754FDF9D50100A2
:10D04800A8DD0100F0B503AF81B070C830780028C2
:10D058000BD0EB68042220460091094998470099B3
:10D06800002802D0012001B0F0BD08460A3842422B
:10D07800424132702A692046904701B0F0BDC0464F
:10D08800CADE0100F0B503AF91B0012305939B1AE6
:10D09800029302239B1A0193534204930C91491E55
:10D0A8000391016807914168069180680A900025FC
:10D0B8002B460E9500950B9211E00398015D0A39F5
:10D0C800484248410C99C9180A9B18700698C368C9
:10D0D80007989847002833460B9A00D0FBE0E807EA
:10D0E80000D0F5E00E9882420D9304D2CFE0A24220
:10D0F8000D9B00D2CBE00C980E9946180846541A9E
:10D10800072C24D8824200D1D8E0049909180023BA
:10D11800F25C0A2A00D1A5E0CA18541C00D3B3E077
:10D12800F41865780A2D00D191E0951C00D1ABE088
:10D13800A5780A2D00D18CE0D21C00D1A4E0E278B9
:10D148000A2A00D181E01B1DCA18E1D19CE0F31C1A
:10D1580003218B439A1B1096089419D1083C0F940D
:10D168000022B41864685E4B5C405C48051B25438C
:10D17800B45826465E40861B26435A4806402E4031
:10D18800864229D108320F988242109EE9D92AE0B6
:10D19800F443E4189B1B9D1E0F95DB1E0993002387
:10D1A800F55C0A2D5ED09C4218D0F5186E780A2ED0
:10D1B80064D00F9E9E42109E10D0AE780A2E60D08A
:10D1C800099E9E42109E09D0ED780A2D3DD01B1D68
:10D1D800F55C0A2DE7D145E0109E04E00898083870
:10D1E8000F908242BDD90898831A4DD0B518049C77
:10D1F800A4180E9824180894029CA41824180F94B4
:10D20800019CA618341809946E18F41E24780A2C68
:10D2180021D00F9C6418032C36D0B41E24780A2C15
:10D228001BD0099C6418032C2ED0741E24780A2C59
:10D2380015D08B42109E27D06C5C0A2C11D0091D8A
:10D24800089C6418032CDFD11EE0DB1C0AE05B1C81
:10D2580008E09B1C06E0C91E02E0891E00E0491E8A
:10D26800109E8B18C1184C1C0B9A91420E9400D337
:10D278003DE7F05C0A280E9C22D038E75B1C109E24
:10D28800F0E79B1C109EEDE70B9A0E920D9B9A42BD
:10D298001E46059D14461BD00A980078002808D021
:10D2A8000698C368042207980F4998470D9B0028E1
:10D2B80011D1E21A00D000E7002003E70E92E6E75A
:10D2C800002526460D9B0A9800780028E8D1F0E74B
:10D2D800009811B0F0BD059811B0F0BD0001010132
:10D2E8000A0A0A0A80808080CADE010080B500AF81
:10D2F80002684068C3681046984780BD80B500AF93
:10D308000B4606C81846FFF7FBF880BDF0B503AF1B
:10D3180085B00C4601680920124A0F230D461D40AE
:10D32800555D03AE3618B61E35700D090AD01D407E
:10D33800535D03AD2D18ED1E2B70801E090AECD12C
:10D34800411E01E0811E401E0922101A019003A807
:10D35800401800900121044A02232046FEF75CFF92
:10D3680005B0F0BDB8DF0100E3E20100F0B503AF9E
:10D3780085B00C4601680920124A0F230D461D404E
:10D38800555D03AE3618B61E35700D090AD01D401E
:10D39800535D03AD2D18ED1E2B70801E090AECD1CC
:10D3A800411E01E0811E401E0922101A019003A8A7
:10D3B800401800900121044A02232046FEF72CFF62
:10D3C80005B0F0BD98DF0100E3E20100F0B503AF5E
:10D3D80085B00C46006802AD0A2629463246FFF79A
:10D3E80093F9311A28180090019101210023204651
:10D3F8000A46FEF711FF05B0F0BD80B500AF82B058
:10D408000068019001A800F003F802B080BDD4D4F0
:10D41800F0B503AF87B00C468A68012103919301E8
:10D4280014D452012ED4006804AD0A262946324687
:10D43800FFF76AF9311A2818009001910122002398
:10D4480020460399FEF7E8FE07B0F0BD0294036892
:10D45800039801020920224D0F261C4634402C5DFA
:10D4680004AA1218921E14701C0928D034402A5D90
:10D4780004AC2418E41E2270801E1A0A8B4213463C
:10D48800EBD21AE002940368039802020920164DB1
:10D498000F2619463140695C04AC2418A41E21707B
:10D4A8001C090CD03440295D04AC2418E41E2170FA
:10D4B800801E190A93420B46EBD2421E01E0821EDF
:10D4C800401E0921081A019004A880180090054AF6
:10D4D800022302980399FEF79FFE07B0F0BDC046ED
:10D4E800B8DF0100E3E2010098DF010080B500AF7A
:10D4F80086B000680090002807D0424202400B48DE
:10D508005043C00E0AA2105C00E020200190104891
:10D51800059001A804900F4803906846029003C93B
:10D528000D4A02ABFFF7F6F906B080BD31B57C07AE
:10D5380000011C021D0E18031E16140F19110408F1
:10D548001F1B0D17151310071A0C12060B050A09D5
:10D5580019D4010003D40100F3DD0100F0B503AFD5
:10D568008BB0054650C9F3681C490C22204602932B
:10D578009847012100281BD10191009568684168EE
:10D5880004910168039116490A9102460C320992E6
:10D598000891083007901348069003A80590124A8E
:10D5A80005AB20463146FFF7B5F9002803D00199AD
:10D5B80008460BB0F0BD0D4902222046029B984751
:10D5C80000280199F4D1009800680CC8204631461B
:10D5D800FFF7A0F9014608460BB0F0BDE5E20100EF
:10D5E800D5D3010005D301006DDE0100F1E2010091
:10D5F80080B500AF084602491822FEF781FF80BDBA
:10D60800F3E2010080B500AF13460A460149FFF76F
:10D6180081F980BDD8E1010080B500AF01460078EE
:10D6280000280FD000200A185378002B0CD09378CC
:10D63800002B0BD0D378002B0AD01279001D002ABA
:10D64800F1D180BD002080BD401C80BD801C80BD04
:10D65800C01C80BD80B500AF00F001F880BDF0B5FA
:10D6680003AF8FB0102A15D30B92424203230893BD
:10D678001A4085180A90A8422AD2541E002A0A98ED
:10D6880006460B4616D00B780370012A07D14B1CAF
:10D69800461C0FE003469C18A34241D362E04B7836
:10D6A8004370022A02D18B1C861C03E08B7883709E
:10D6B800CB1CC61C032C0BD31C7834705C7874709C
:10D6C8009C78B470DC78F4701B1D361DAE42F3D123
:10D6D8000B98801A0B90089CA0432B188E1809965B
:10D6E8002640079047D19D420B9A099E11D2314698
:10D6F800086801C59D420CD2486801C59D4208D200
:10D70800886801C59D4204D2C86801C510319D4290
:10D71800EED32240079831180A989C18A34221D2C8
:10D7280003251540521E002D0ED00E781E70012DB7
:10D7380004D1491C5B1C032A08D213E04E785E70A2
:10D74800022D11D1891C9B1C032A0BD30A781A704D
:10D758004A785A708A789A70CA78DA70091D1B1D3F
:10D76800A342F3D10FB0F0BD8D789D70C91CDB1CAE
:10D77800032AEBD2F6E7002406940E940EACA41903
:10D7880005940424A41B0494E407009606D0099C7D
:10D798002478059E3470009E01240694049CA407F6
:10D7A80008D5099C0492069AA45A059E069AB45272
:10D7B800049A009EF40003940E9C06942C1D9C422F
:10D7C80036D2744209190591039D694218240C4008
:10D7D80002940A9904912946069CCC40069405991E
:10D7E8008918019149680C46029DAC40069D2C435E
:10D7F800049DAC50AD182C4608349C421CD2039CA6
:10D80800E140019CA46806940195029DAC400C433C
:10D8180001994C600499083104918D18291D059CC3
:10D828000834059499420399D6D30598801801E0E5
:10D838000998801B059004E00198001D05902D1D96
:10D8480006910DA80021049001700CA80170012E0A
:10D858000E460C4602910B9A09D0059C60792679F0
:10D868000DAC26700402022002900CA804900998BE
:10D87800C0070AD00598001D0299405C04990870F9
:10D888000DA806780CA80078010405960398404274
:10D8980004901826049806400C4305990C43B4409C
:10D8A80006990398C14021432960089C099E30E7E6
:10D8B80080B500AFFFF7D3FE80BDB0B502AF0C4610
:10D8C8000546C01729464140081AE11722464A4032
:10D8D800511A00F004F86C4000D54042B0BDF0B5D4
:10D8E80003AF83B00246884203D20020114603B03A
:10D8F800F0BD100C002610238142344630D9029422
:10D90800144631D9230A0820994232D9334600D81F
:10D91800034601932309042099422ED933462FD96F
:10D92800A0080225814230D9304600D82846009305
:10D9380064080125A1422C4600D93446029E019B69
:10D948009E19009BF318181803199D400C469C401B
:10D95800161B8E421DD232462846114603B0F0BD32
:10D968001C4602941446CDD80446230A082099423E
:10D97800CCD81C463346CBD9CBE71C463346CFD848
:10D988000346A00802258142CED804463046CDD9A8
:10D99800CDE7002C03D429462846324614E05B1E06
:10D9A8001F2200931A40012090406408321BD317AD
:10D9B80001930290019B9843002A00DA32462843DB
:10D9C8008A420299009B91D3491E002B0BD0032653
:10D9D8001E400AD055002A1B521C00D41546012EA1
:10D9E80006D15A1E13E0154613E015461A460EE0F6
:10D9F8006D002A1B521C00D41546022E01D19A1E16
:10DA080005E06D002A1B521C00D41546DA1E042BB3
:10DA18000AD21F2213402A46DA40294008431146F9
:10DA280003B0F0BD121FF4D06D002E1B761C0CD570
:10DA38006D002E1B761C0DD56D002E1B761C0ED589
:10DA48006D002E1B761CEDD40EE035466D002E1BA6
:10DA5800761CF1D435466D002E1B761CF0D4354665
:10DA68006D002E1B761CDDD43546DBE7F0B503AF21
:10DA780083B0102A019064D34342032402942340C4
:10DA8800C518A8421BD25C1E0094002B019C264698
:10DA98000BD02170012B04D1661C009C032C07D2EB
:10DAA8000DE06170022B46D1A61C009C032C06D306
:10DAB800F170B17071703170361DAE42F8D1D21A62
:10DAC800134602988343EB189D420ED2CCB21F4EE8
